S0110000303932345F706F72742E7372656320
S11300000C9434000C9462000C9474000C948600DC
S11300100C9451000C9451000C9451000C94510018
S11300200C9451000C9451000C9451000C94510008
S11300300C9451000C9451000C9451000C945100F8
S11300400C9451000C9451000C9451000C945100E8
S11300500C9451000C9451000C9451000C945100D8
S11300600C9451000C94510011241FBECFEFD8E022
S1130070DEBFCDBF11E0A0E0B1E0E8E5F2E002C0F0
S113008005900D92A430B107D9F721E0A4E0B1E0C6
S113009001C01D92A530B207E1F70E94C5000C947F
S11300A02A010C94000020E030E008C0EFE9FFE0F2
S11300B03197F1F700C000002F5F3F4F2817390731
S11300C0ACF308951F920F920FB60F9211248F93E1
S11300D080EF809303018FE0809302018F910F9052
S11300E00FBE0F901F9018951F920F920FB60F928C
S11300F011248F9383EC809303018CE3809302019A
S11301008F910F900FBE0F901F9018951F920F9212
S11301100FB60F9211242F933F938F939F9383B124
S113012080FD0AC09091040190FF06C09AEA909362
S1130130030195E59093020181FD1CC09091040197
S113014091FF18C02091000130910101253631053D
S113015058F020910001309101012253310930936C
S113016001012093000106C024EF31E03093010126
S113017020930001809304019F918F913F912F91CF
S11301800F900FBE0F901F90189587B18F6087B99D
S11301908AB1806F8AB98AB1837F8AB984B18C7F2E
S11301A084B99BB1809103019F70807F892B8BB9A7
S11301B098B180910301907F8F70892B88B98BB19E
S11301C08C608BB985B1836085B98DB383608DBB39
S11301D0E9E6F0E080818A60808380818A7F808381
S11301E0E8E6F0E0808181608083EBE6F0E08081E6
S11301F0836080838BB381608BBB83B18093040164
S113020078949BB1809103019F70807F892B8BB977
S113021098B180910301907F8F70892B88B9809168
S11302200001909101010E9453009BB18091020151
S11302309F70807F892B8BB998B180910201907F48
S11302408F70892B88B980910001909101010E94DF
S10B02505300D7CFF894FFCF4F
S1070258F40155AAAA
S9030000FC
