S0110000303932345F706F72742E7372656320
S11300000C9434000C94DC000C94F9000C9417014B
S11300100C9451000C9451000C9451000C94510018
S11300200C9451000C9451000C9451000C94510008
S11300300C9451000C9451000C9451000C945100F8
S11300400C9451000C9451000C9451000C945100E8
S11300500C9451000C9451000C9451000C945100D8
S11300600C9451000C94510011241FBECFEFD8E022
S1130070DEBFCDBF11E0A0E0B1E0E8EDF2E002C0E8
S113008005900D92A230B107D9F721E0A2E0B1E0CA
S113009001C01D92A530B207E1F70E9438010C940B
S11300A06A010C94000020E030E008C0EFE9FFE0B2
S11300B03197F1F700C000002F5F3F4F2817390731
S11300C0ACF308950F931F93CF93DF93EC0100E0FB
S11300D010E017C0809102018130C9F581E090E001
S11300E0002E02C0880F991F0A94E2F78095982F7A
S11300F09F7098B9807F8BB9CE010E9453000F5F27
S11301001F4F0830110534F306E010E017C080914A
S113011002018130E1F481E090E0002E02C0880FFA
S1130120991F0A94E2F78095982F9F7098B9807F61
S11301308BB9CE010E94530001501109101611060B
S113014034F388B18F6088B98BB1806F8BB9DF913C
S1130150CF911F910F910895CF93DF93EC0190916C
S11301600201911126C088B190910001807F9F7097
S1130170982B98B98BB1909100018F70907F982B38
S11301809BB9CE010E94530080910201811111C0DC
S113019098B180910301907F8F70892B88B99BB1AE
S11301A0809103019F70807F892B8BB9CE010E94BF
S11301B05300DF91CF9108951F920F920FB60F92C3
S11301C011248F939F938FE59AEE0197F1F700C066
S11301D000004A9907C0F8948CB381608CBB789472
S11301E0109202019F918F910F900FBE0F901F905C
S11301F018951F920F920FB60F9211248F939F930D
S11302008FE59AEE0197F1F700C000004B9908C002
S1130210F8948CB381608CBB789481E08093020164
S11302209F918F910F900FBE0F901F9018951F9262
S11302300F920FB60F9211248F939F9383B180FD79
S113024005C09091040190FD1092020181FD07C048
S11302509091040191FF03C091E090930201809377
S113026004019F918F910F900FBE0F901F901895CE
S11302709FE097B980EF8AB998B98BB98AB1837F27
S11302808AB984B18C7F84B98BB18C608BB985B108
S1130290836085B981E08093680093E090936B005C
S11302A08BBB83B180930401789484E190E00E9435
S11302B0530080910201882319F0813031F0F9CF85
S11302C084E690E00E94AC00F4CF84E690E00E94C3
S10B02D06200EFCFF894FFCFA8
S10502D8FF0021
S9030000FC
